:10000000FDC000001FC100001DC100001BC1000099
:1000100019C1000017C1000015C1000013C1000084
:1000200011C100000FC100000DC100000BC1000094
:1000300009C1000007C1000005C1000003C10000A4
:1000400001C10000FFC00000FDC00000FBC00000B7
:10005000F9C00000F7C00000F5C00000F3C00000C8
:10006000F1C00000EFC00000EDC00000EBC00000D8
:10007000E9C00000E7C00000E5C00000E3C00000E8
:10008000E1C00000DFC00000DDC00000DBC00000F8
:10009000D9C00000D7C00000D5C00000D3C0000008
:1000A000D1C00000CFC00000CDC00000CBC0000018
:1000B000C9C00000C7C00000C5C00000C3C0000028
:1000C000C1C00000BFC00000BDC00000BBC0000038
:1000D000B9C00000B7C00000B5C00000B3C0000048
:1000E000B1C00000AFC00000ADC00000ABC0000058
:1000F000A9C00000A7C00000A5C00000A3C0000068
:10010000A1C000009FC000009DC000009BC0000077
:1001100099C0000097C0000095C0000093C0000087
:1001200091C000008FC000008DC000008BC0000097
:1001300089C0000087C0000085C0000083C00000A7
:1001400081C000007FC000007DC000007BC00000B7
:1001500079C0000077C0000075C0000073C00000C7
:1001600071C000006FC000006DC000006BC00000D7
:1001700069C0000067C0000065C0000063C00000E7
:1001800061C000005FC000005DC000005BC00000F7
:1001900059C0000057C0000055C0000053C0000007
:1001A00051C000004FC000004DC000004BC0000017
:1001B00049C0000047C0000045C0000043C0000027
:1001C00041C000003FC000003DC000003BC0000037
:1001D00039C0000037C0000035C0000033C0000047
:1001E00031C000002FC000002DC000002BC0000057
:1001F00029C0000027C0000025C0000011241FBE38
:10020000CFEFDFE3DEBFCDBF00E00CBF18BE19BEED
:100210001ABE1BBE12E2A0E0B0E2E8ECF0E100E0A2
:100220000BBF02C007900D92AC35B107D9F71BBECA
:1002300022E2ACE5B2E201C01D92AC35B207E1F7B3
:100240001ED040C7DDCE4BE060E080E46AD2E0E53E
:10025000F0E0808188608083818183FFFDCF66E04C
:1002600080EC6AD2E0E5F0E080818061808381816A
:1002700084FFFDCF84E06AD260E080E063C2E3DF08
:10028000E1D1F8D040E050E261E080E008D120E028
:1002900030E0A90160E080E090E03FD1C1E0D0E033
:1002A00002C0C1E0D0E02FEF8BE792E921508040FF
:1002B0009040E1F700C00000BE01882777FD8095DF
:1002C000982FF2D29B01AC01219660E080E090E093
:1002D00024D1CB30D10539F7E4CF00000000000075
:1002E000000000000895CF92DF92EF92FF926B0121
:1002F0007C0120E030E0A901A0D2882324F4F7FAA1
:10030000F094F7F8F0946C2D7D2D8E2D9F2DFF909D
:10031000EF90DF90CF900895CF92DF92EF92FF920F
:10032000CF93E1DF6B017C018CD2BED29B01AC018B
:10033000C701B6011DD2C1E020E030E0A90164D3BD
:1003400018160CF0C0E08C2FCF91FF90EF90DF904B
:10035000CF900895BF92CF92DF92EF92FF920F93CA
:100360001F93CF93DF93E82EE6E4F6E080E18083ED
:1003700088E08083B2DF6894FF24F3F806E416E097
:10038000DD24D394BD2CC5E4D6E06894CC24C1F818
:10039000F801B082A2DFEE201CF0F801C08201C09B
:1003A000C8829BDFD882EE0C98DFFA9489F780E14F
:1003B00080934506DF91CF911F910F91FF90EF90B1
:1003C000DF90CF90BF900895BF92CF92DF92EF92CF
:1003D000FF920F931F93CF93DF93E82E80E18093DA
:1003E000460688E08093450678DF6894FF24F3F89A
:1003F00006E416E0DD24D394BD2CC5E4D6E0689471
:10040000CC24C1F8F801B08268DFEE201CF0F801BE
:10041000C08201C0C88261DFD882EE0C5EDFFA9430
:1004200089F780E180934506DF91CF911F910F916D
:10043000FF90EF90DF90CF90BF900895CF93C82F9B
:10044000862F805587DF2C2F30E02E5F3F4F207F97
:100450003327C901959587959595879595958795A6
:1004600095958795806176DF8C2F8E5F8F7072DF18
:10047000CF910895CF93DF93D0EB8D2F6BDF82E088
:1004800069DF80E167DFC0E080E09EDFCF5FC038DA
:10049000D9F7DF5FD83B89F7DF91CF910895AF920D
:1004A000BF92CF92DF92EF921F93CF93DF93E82E0C
:1004B000C62E5A01FA012081222331F1D12CC22FFC
:1004C000C052F8E7FE1510F4C394E12C6C2D8E2D6C
:1004D000B5DF2C2F30E0E901CC0FDD1F2C0F3D1FC5
:1004E000E901CC0FDD1FC35EDF4D10E089916CDFA9
:1004F0001F5F1630D9F786E0E80ED394F501ED0DB5
:10050000F11D20812111DBCFDF91CF911F91EF9061
:10051000DF90CF90BF90AF9008954F925F926F920F
:100520007F928F929F92AF92BF92CF92DF92EF9283
:10053000FF920F931F93CF93DF93CDB7DEB76597ED
:10054000CDBFDEBF982E862E69017A01CA01B9019E
:1005500078D19F938F937F936F9387E592E29F93D8
:100560008F938E010F5F1F4F1F930F93F1D2F801EE
:1005700001900020E9F731979F01201B310B890181
:10058000C701B601C9DECDBFDEBF882309F440C074
:10059000FE01E00FF11F8EE2818320E030E040E2B7
:1005A00051E4C701B60134D29EDE6894AA24A1F8B2
:1005B000B12CAC0EBD1EA00EB11E43D10F2EFAE021
:1005C0004F2E512C612C712CF02DA3019201A5D23C
:1005D000605DF501608320E030E048EC52E4C70143
:1005E000B60116D280DE0F2EF3E0EF2EF12CF02DA7
:1005F000EC0EFD1EE00EF11E24D1A30192018DD25E
:10060000605DF7016083FE01E00FF11F8AE08483E3
:10061000AE014F5F5F4F682D892D41DF6596CDBFDD
:10062000DEBFDF91CF911F910F91FF90EF90DF9090
:10063000CF90BF90AF909F908F907F906F905F9082
:100640004F9008958FE180934006E5E4F6E084E062
:1006500080832FEF35EA9EE0215030409040E1F753
:1006600000C00000809346062FEF35EA9EE021503F
:1006700030409040E1F700C0000080838EEA6ADEDF
:1006800082E068DE80E166DE80E464DE81E862DECE
:100690008FEC60DE81EA5EDE88EC5CDE86EA5ADEA4
:1006A00088EA58DE8FE356DE83ED54DE80E052DECA
:1006B00085ED50DE80E84EDE89ED4CDE81EF4ADECE
:1006C0008AED48DE82E146DE8BED44DE80E442DEE8
:1006D00080E240DE82E03EDE8DE83CDE84E13ADE10
:1006E00084EA38DE86EA36DE8FEA34DE8FEA32DEEE
:1006F000C1DE60E080E0A2CE0F93CF93DF931F9224
:10070000CDB7DEB72FB72983F8941BBEFC0108EDE7
:1007100004BF608389818FBF0F90DF91CF910F91CC
:100720000895662311F090E201C090E0842B892B9C
:10073000E0E5F0E0828308956F71862BE0E5F0E05C
:1007400085830895682B81E490E0D6CF1F93CF93E3
:10075000DF93182FC0E4D0E06881687F682B80E4C5
:1007600090E0CADF88818123DF91CF911F910895A6
:100770005058BB27AA270ED00DC1FED030F003D1B0
:1007800020F031F49F3F11F41EF4F3C00EF4E09515
:10079000E7FBE9C0E92F0FD180F3BA1762077307AF
:1007A0008407950718F071F49EF527C10EF4E095C3
:1007B0000B2EBA2FA02D0B01B90190010C01CA011B
:1007C000A0011124FF27591B99F0593F50F4503EC6
:1007D00068F11A16F040A22F232F342F4427585FB8
:1007E000F3CF469537952795A795F0405395C9F7D0
:1007F0007EF41F16BA0B620B730B840BBAF0915088
:10080000A1F0FF0FBB1F661F771F881FC2F70EC026
:10081000BA0F621F731F841F48F4879577956795F9
:10082000B795F7959E3F08F0B3CF9395880F08F0E2
:100830009927EE0F97958795089571D008F481E078
:10084000089504D06894B111D9C00895BCD088F03F
:100850009F5790F0B92F9927B751A0F0D1F0660FAC
:10086000771F881F991F1AF0BA95C9F712C0B130C7
:1008700081F0C3D0B1E00895C0C0672F782F8827DA
:10088000B85F39F0B93FCCF3869577956795B39506
:10089000D9F73EF490958095709561957F4F8F4F75
:1008A0009F4F0895E89409C097FB3EF4909580957A
:1008B000709561957F4F8F4F9F4F9923A9F0F92F26
:1008C00096E9BB279395F695879577956795B795A4
:1008D000F111F8CFFAF4BB0F11F460FF1BC06F5F8A
:1008E0007F4F8F4F9F4F16C0882311F096E911C09C
:1008F000772321F09EE8872F762F05C0662371F0BD
:1009000096E8862F70E060E02AF09A95660F771FD0
:10091000881FDAF7880F9695879597F90895990FAC
:100920000008550FAA0BE0E8FEEF16161706E807B9
:10093000F907C0F012161306E407F50798F0621BDA
:10094000730B840B950B39F40A2661F0232B242BAF
:10095000252B21F408950A2609F4A140A6958FEFCE
:10096000811D811D089597F99F6780E870E060E020
:1009700008959FEF80EC089500240A941616170638
:1009800018060906089500240A9412161306140680
:1009900005060895092E0394000C11F4882352F0E3
:1009A000BB0F40F4BF2B11F460FF04C06F5F7F4F9B
:1009B0008F4F9F4F089557FD9058440F551F59F082
:1009C0005F3F71F04795880F97FB991F61F09F3F3C
:1009D00079F087950895121613061406551FF2CF65
:1009E0004695F1DF08C0161617061806991FF1CFB5
:1009F00086957105610508940895E894BB276627DC
:100A00007727CB0197F908958ADF08F48FEF0895CF
:100A10000BD0C0CFB1DF28F0B6DF18F0952309F076
:100A2000A2CFA7CF1124EACFC6DFA0F3959FD1F3C1
:100A3000950F50E0551F629FF001729FBB27F00D8C
:100A4000B11D639FAA27F00DB11DAA1F649F6627E1
:100A5000B00DA11D661F829F2227B00DA11D621F30
:100A6000739FB00DA11D621F839FA00D611D221FEA
:100A7000749F3327A00D611D231F849F600D211DCE
:100A8000822F762F6A2F11249F5750408AF0E1F071
:100A900088234AF0EE0FFF1FBB1F661F771F881FBA
:100AA00091505040A9F79E3F510570F05CCFA6CF02
:100AB0005F3FECF3983EDCF3869577956795B795A5
:100AC000F795E7959F5FC1F7FE2B880F911D9695CF
:100AD000879597F90895A1E21A2EAA1BBB1BFD0169
:100AE0000DC0AA1FBB1FEE1FFF1FA217B307E4070D
:100AF000F50720F0A21BB30BE40BF50B661F771F65
:100B0000881F991F1A9469F7609570958095909544
:100B10009B01AC01BD01CF010895052E97FB16F492
:100B2000009406D057FD0CD0D6DF07FC09D07EF428
:100B300090958095709561957F4F8F4F9F4F089549
:100B400050954095309521953F4F4F4F5F4F0895F9
:100B50000F931F93CF93DF93CDB7DEB72E97CDBF03
:100B6000DEBF0E891F8986E08C8309831A838FEF8D
:100B70009FE78D839E83CE014A96AC01688D798D67
:100B8000CE0101960DD0EF81F885E00FF11F1082A4
:100B90002E96CDBFDEBFDF91CF911F910F910895AB
:100BA0002F923F924F925F926F927F928F929F927D
:100BB000AF92BF92CF92DF92EF92FF920F931F936B
:100BC000CF93DF93CDB7DEB72C97CDBFDEBF7C01CF
:100BD0006B018A01FC0116821782838181FFB9C1F2
:100BE00088248394912C8C0E9D1EF7019381F6012D
:100BF00093FD859193FF81916F01882309F4A5C12D
:100C0000853239F493FD859193FF81916F0185328F
:100C100021F4B70190E0CCD1E8CF512C312C20E069
:100C20002032A8F48B3261F028F4803251F0833204
:100C300071F40BC08D3239F0803349F4216028C043
:100C40002260246025C0286023C0206121C027FDC8
:100C500027C0382F30533A3078F426FF06C0FAE028
:100C60005F9E300D1124532E13C08AE0389E300D44
:100C70001124332E20620CC08E3221F426FD65C172
:100C8000206406C08C3611F4206802C0883641F416
:100C9000F60193FD859193FF81916F018111C0CF82
:100CA000982F9554933018F09052933028F40C5F9D
:100CB0001F4FFFE3F9830DC0833631F0833771F0A6
:100CC000833509F05AC022C0F801808189830E5F04
:100CD0001F4F44244394512C540114C03801F2E0B6
:100CE0006F0E711CF801A080B18026FF03C0652D36
:100CF00070E002C06FEF7FEFC5012C874ED12C0151
:100D000083012C856FE7262E222217C03801F2E0DE
:100D10006F0E711CF801A080B18026FF03C0652D05
:100D200070E002C06FEF7FEFC5012C872BD12C0143
:100D30002C8550E8252E222A830123FC1AC005C0E9
:100D4000B70180E290E034D13A94832D90E04816C8
:100D50005906B0F30EC0F50127FC859127FE81915D
:100D60005F01B70190E024D131103A94F1E04F1ABD
:100D700051084114510479F7E5C0843611F08936E1
:100D800039F5F80127FF07C0608171818281938165
:100D90000C5F1F4F08C060817181882777FD8095A7
:100DA000982F0E5F1F4F4FE6B42EB22297FF09C057
:100DB00090958095709561957F4F8F4F9F4FF0E88C
:100DC000BF2A2AE030E0A4011FD1A82EA81842C0F3
:100DD000853731F43FEEB32EB2222AE030E024C052
:100DE00099EFB92EB2228F36B9F020F4883509F088
:100DF000ACC00DC0803721F0883709F0A6C002C012
:100E000020E1B22AB4FE0BC084E0B82A08C024FF57
:100E100009C0E6E0BE2A06C028E030E005C020E1B7
:100E200030E002C020E132E0F801B7FE07C0608187
:100E30007181828193810C5F1F4F06C06081718137
:100E400080E090E00E5F1F4FA401DED0A82EA8180E
:100E5000FFE7BF22B6FE0BC02B2D2E7FA51450F44A
:100E6000B4FE0AC0B2FC08C02B2D2E7E05C07A2C21
:100E70002B2D03C07A2C01C0752C24FF0DC0FE0160
:100E8000EA0DF11D8081803311F4297E09C022FF13
:100E900006C07394739404C0822F867809F073940B
:100EA00023FD13C020FF0EC05A2C731458F4530CAA
:100EB0005718732C07C0B70180E290E02C8778D0D8
:100EC00073942C857314B8F304C0731410F437189A
:100ED00001C0312C24FF11C0B70180E390E02C87C2
:100EE00067D02C8522FF1CC021FF03C088E590E05D
:100EF00002C088E790E0B7010CC0822F867881F0AD
:100F000021FD02C080E201C08BE227FD8DE2B70126
:100F100090E04ED005C0B70180E390E049D05A94EC
:100F2000A514C8F3AA94F401EA0DF11DB70180815C
:100F300090E03ED0A110F6CF05C0B70180E290E06E
:100F400037D03A943110F9CF50CEF701268137814E
:100F500002C02FEF3FEFC9012C96CDBFDEBFDF915E
:100F6000CF911F910F91FF90EF90DF90CF90BF90A6
:100F7000AF909F908F907F906F905F904F903F9039
:100F80002F900895FC010590615070400110D8F732
:100F9000809590958E0F9F1F0895FC0161507040C1
:100FA00001900110D8F7809590958E0F9F1F08959E
:100FB0000F931F93CF93DF938C01EB018B8181FD06
:100FC00003C00FEF1FEF1AC082FF0DC02E813F81BB
:100FD0008C819D812817390764F4E881F981019398
:100FE000E883F98306C0E885F985802F1995892B58
:100FF00041F78E819F8101968E839F83C801DF9187
:10100000CF911F910F910895FA01AA27283051F12D
:10101000203181F1E8946F936E7F6E5F7F4F8F4F29
:101020009F4FAF4FB1E03ED0B4E03CD0670F781F88
:10103000891F9A1FA11D680F791F8A1F911DA11D6D
:101040006A0F711D811D911DA11D20D009F46894A6
:101050003F912AE0269F11243019305D3193DEF64E
:10106000CF010895462F4770405D4193B3E00FD004
:10107000C9F7F6CF462F4F70405D4A3318F0495DEF
:1010800031FD4052419302D0A9F7EACFB4E0A695D2
:101090009795879577956795BA95C9F700976105F4
:1010A000710508959B01AC010A2E0694579547954A
:1010B00037952795BA95C9F7620F731F841F951F3F
:0810C000A01D0895F894FFCF74
:1010C80054686973206973206D79206E7468204FA5
:1010D8004C45442070726F6772616D2E00000000ED
:1010E8000000000000002F000000000700070000BB
:1010F800147F147F1400242A7F2A120062640813C4
:101108002300364955225000000503000000001C4A
:10111800224100000041221C000014083E0814006F
:1011280008083E0808000000A06000000808080839
:1011380008000060600000002010080402003E5112
:1011480049453E0000427F40000042615149460047
:101158002141454B31001814127F100027454545A1
:1011680039003C4A494930000171090503003649F4
:1011780049493600064949291E0000363600000054
:1011880000563600000008142241000014141414FC
:1011980014000041221408000201510906003249D6
:1011A80059513E007C1211127C007F494949360092
:1011B8003E41414122007F4141221C007F4949496B
:1011C80041007F09090901003E4149497A007F0829
:1011D80008087F0000417F4100002040413F010096
:1011E8007F08142241007F40404040007F020C02EB
:1011F8007F007F0408107F003E4141413E007F0987
:10120800090906003E4151215E007F09192946005F
:1012180046494949310001017F0101003F404040F2
:101228003F001F2040201F003F4038403F0063140C
:101238000814630007087008070061514945430016
:10124800007F41410000552A552A55000041417F41
:101258000000040201020400404040404000000138
:10126800020400002054545478007F484444380055
:10127800384444442000384444487F003854545487
:101288001800087E0901020018A4A4A47C007F08A5
:101298000404780000447D4000004080847D000004
:1012A8007F102844000000417F4000007C0418049F
:1012B80078007C0804047800384444443800FC244E
:1012C8002424180018242418FC007C0804040800AE
:1012D800485454542000043F444020003C404020DF
:1012E8007C001C2040201C003C4030403C0044282E
:1012F800102844001CA0A0A07C004464544C440066
:1013080000187E810000817E1800000000FFFF00A9
:0C13180000081008040810256C64000098
:00000001FF
